8=FIX.4.4|9=116|35=W|34=146664|49=FixServer|52=20151218-08:51:45.734|56=CLIENT1|55=EURJPY|268=2|269=0|270=131.362|269=1|270=131.369|10=243|
8=FIX.4.4|9=116|35=W|34=146665|49=FixServer|52=20151218-08:51:45.734|56=CLIENT1|55=GBPNZD|268=2|269=0|270=2.22558|269=1|270=2.22609|10=224|8=FIX.4.4|9=114|35=W|34=146666|49=FixServer|52=20151218-08:51:45.735|56=CLIENT1|55=NZDJPY|268=2|269=0|270=81.463|269=1|270=81.473|10=154|
