8=FIX.4.4|9=116|35=W|34=146657|49=FixServer|52=20151218-08:51:45.554|56=CLIENT1|55=EURUSD|268|
