1123456          TEST CUSTOMER       20070430                                                                                                   
2000000777308300403526166513863530005         0000000012345TransNo001                                                                      0000foo bar baz                                       NAB200704305102030UTC
20000017079083004035261665017626433           0000000045678TransNo002                                                                      0000foo bar baz                                       NAB200704305102030UTC
20000999755083004035261665130000044284027     0000000000999TransNo003                                                                      1001foo bar baz                                       NAB200704305102030UTC
2000007879008300403526166542500153772         0000000095173TransNo004                                                                      1012foo bar baz                                       NAB200704305102030UTC
200000085320830040352616656008642900322007    0000000035719TransNo005                                                                      2001foo bar baz                                       NAB200704305102030UTC
9000000000200000000580230000000003000000013189100000000050000000189914
